{
  "_format": "hh-sol-artifact-1",
  "contractName": "CalendarIndexer",
  "sourceName": "contracts/CalendarIndexer.sol",
  "abi": [
    {
      "inputs": [
        {
          "internalType": "string",
          "name": "calendarId",
          "type": "string"
        },
        {
          "internalType": "string",
          "name": "teamId",
          "type": "string"
        },
        {
          "internalType": "uint256",
          "name": "tokenId",
          "type": "uint256"
        },
        {
          "internalType": "string",
          "name": "tokenUri",
          "type": "string"
        },
        {
          "internalType": "string",
          "name": "calendarNftUri",
          "type": "string"
        }
      ],
      "name": "addOrUpdateCalendar",
      "outputs": [],
      "stateMutability": "nonpayable",
      "type": "function"
    },
    {
      "inputs": [
        {
          "internalType": "string",
          "name": "calendarId",
          "type": "string"
        }
      ],
      "name": "getCalendar",
      "outputs": [
        {
          "components": [
            {
              "internalType": "string",
              "name": "calendarId",
              "type": "string"
            },
            {
              "internalType": "string",
              "name": "teamId",
              "type": "string"
            },
            {
              "internalType": "uint256",
              "name": "tokenId",
              "type": "uint256"
            },
            {
              "internalType": "string",
              "name": "tokenUri",
              "type": "string"
            },
            {
              "internalType": "string",
              "name": "calendarNftUri",
              "type": "string"
            }
          ],
          "internalType": "struct CalendarIndexer.Calendar",
          "name": "",
          "type": "tuple"
        }
      ],
      "stateMutability": "view",
      "type": "function"
    }
  ],
  "bytecode": "0x608060405234801561001057600080fd5b50610878806100206000396000f3fe608060405234801561001057600080fd5b50600436106100365760003560e01c806366dc20ff1461003b578063786b0b4114610050575b600080fd5b61004e610049366004610511565b610079565b005b61006361005e3660046105c8565b6101ba565b6040516100709190610655565b60405180910390f35b60006040518060a00160405280878152602001868152602001858152602001848152602001838152509050806000876040516100b591906106dd565b908152604051908190036020019020815181906100d29082610782565b50602082015160018201906100e79082610782565b5060408201516002820155606082015160038201906101069082610782565b506080820151600482019061011b9082610782565b5090505060018560405161012f91906106dd565b9081526040516020918190038201902080546001810182556000918252919020825183926005029091019081906101669082610782565b506020820151600182019061017b9082610782565b50604082015160028201556060820151600382019061019a9082610782565b50608082015160048201906101af9082610782565b505050505050505050565b6101ec6040518060a0016040528060608152602001606081526020016000815260200160608152602001606081525090565b6000826040516101fc91906106dd565b90815260200160405180910390206040518060a0016040529081600082018054610225906106f9565b80601f0160208091040260200160405190810160405280929190818152602001828054610251906106f9565b801561029e5780601f106102735761010080835404028352916020019161029e565b820191906000526020600020905b81548152906001019060200180831161028157829003601f168201915b505050505081526020016001820180546102b7906106f9565b80601f01602080910402602001604051908101604052809291908181526020018280546102e3906106f9565b80156103305780601f1061030557610100808354040283529160200191610330565b820191906000526020600020905b81548152906001019060200180831161031357829003601f168201915b5050505050815260200160028201548152602001600382018054610353906106f9565b80601f016020809104026020016040519081016040528092919081815260200182805461037f906106f9565b80156103cc5780601f106103a1576101008083540402835291602001916103cc565b820191906000526020600020905b8154815290600101906020018083116103af57829003601f168201915b505050505081526020016004820180546103e5906106f9565b80601f0160208091040260200160405190810160405280929190818152602001828054610411906106f9565b801561045e5780601f106104335761010080835404028352916020019161045e565b820191906000526020600020905b81548152906001019060200180831161044157829003601f168201915b5050505050815250509050919050565b634e487b7160e01b600052604160045260246000fd5b600082601f83011261049557600080fd5b813567ffffffffffffffff808211156104b0576104b061046e565b604051601f8301601f19908116603f011681019082821181831017156104d8576104d861046e565b816040528381528660208588010111156104f157600080fd5b836020870160208301376000602085830101528094505050505092915050565b600080600080600060a0868803121561052957600080fd5b853567ffffffffffffffff8082111561054157600080fd5b61054d89838a01610484565b9650602088013591508082111561056357600080fd5b61056f89838a01610484565b955060408801359450606088013591508082111561058c57600080fd5b61059889838a01610484565b935060808801359150808211156105ae57600080fd5b506105bb88828901610484565b9150509295509295909350565b6000602082840312156105da57600080fd5b813567ffffffffffffffff8111156105f157600080fd5b6105fd84828501610484565b949350505050565b60005b83811015610620578181015183820152602001610608565b50506000910152565b60008151808452610641816020860160208601610605565b601f01601f19169290920160200192915050565b602081526000825160a0602084015261067160c0840182610629565b90506020840151601f198085840301604086015261068f8383610629565b92506040860151606086015260608601519150808584030160808601526106b68383610629565b925060808601519150808584030160a0860152506106d48282610629565b95945050505050565b600082516106ef818460208701610605565b9190910192915050565b600181811c9082168061070d57607f821691505b60208210810361072d57634e487b7160e01b600052602260045260246000fd5b50919050565b601f82111561077d57600081815260208120601f850160051c8101602086101561075a5750805b601f850160051c820191505b8181101561077957828155600101610766565b5050505b505050565b815167ffffffffffffffff81111561079c5761079c61046e565b6107b0816107aa84546106f9565b84610733565b602080601f8311600181146107e557600084156107cd5750858301515b600019600386901b1c1916600185901b178555610779565b600085815260208120601f198616915b82811015610814578886015182559484019460019091019084016107f5565b50858210156108325787850151600019600388901b60f8161c191681555b5050505050600190811b0190555056fea264697066735822122093462207655070d336850232c5f46d83b7cc074650ee1f304a62e7dd672bbb9f64736f6c63430008130033",
  "linkReferences": {},
  "deployedLinkReferences": {}
}