{
  "_format": "hh-sol-artifact-1",
  "contractName": "Team",
  "sourceName": "contracts/Team.sol",
  "abi": [
    {
      "inputs": [
        {
          "internalType": "string",
          "name": "teamId",
          "type": "string"
        },
        {
          "internalType": "string",
          "name": "teamName",
          "type": "string"
        },
        {
          "internalType": "string[]",
          "name": "teamMembers",
          "type": "string[]"
        }
      ],
      "stateMutability": "nonpayable",
      "type": "constructor"
    },
    {
      "inputs": [],
      "name": "getLatestTeamNftContentUris",
      "outputs": [
        {
          "components": [
            {
              "internalType": "string",
              "name": "calendarId",
              "type": "string"
            },
            {
              "internalType": "string",
              "name": "teamId",
              "type": "string"
            },
            {
              "internalType": "uint256",
              "name": "tokenId",
              "type": "uint256"
            },
            {
              "internalType": "string",
              "name": "tokenUri",
              "type": "string"
            },
            {
              "internalType": "string",
              "name": "calendarNftUri",
              "type": "string"
            }
          ],
          "internalType": "struct Team.Calendar[]",
          "name": "",
          "type": "tuple[]"
        }
      ],
      "stateMutability": "view",
      "type": "function"
    },
    {
      "inputs": [],
      "name": "getMembers",
      "outputs": [
        {
          "components": [
            {
              "internalType": "string",
              "name": "walletAddress",
              "type": "string"
            },
            {
              "internalType": "bool",
              "name": "acceptStatus",
              "type": "bool"
            },
            {
              "internalType": "string",
              "name": "calendarId",
              "type": "string"
            }
          ],
          "internalType": "struct Team.Member[]",
          "name": "",
          "type": "tuple[]"
        }
      ],
      "stateMutability": "view",
      "type": "function"
    },
    {
      "inputs": [
        {
          "internalType": "string",
          "name": "walletAddress",
          "type": "string"
        },
        {
          "internalType": "bool",
          "name": "acceptStatus",
          "type": "bool"
        },
        {
          "internalType": "string",
          "name": "calendarId",
          "type": "string"
        }
      ],
      "name": "updateMember",
      "outputs": [],
      "stateMutability": "nonpayable",
      "type": "function"
    },
    {
      "inputs": [
        {
          "internalType": "string",
          "name": "calendarId",
          "type": "string"
        },
        {
          "internalType": "string",
          "name": "teamId",
          "type": "string"
        },
        {
          "internalType": "uint256",
          "name": "tokenId",
          "type": "uint256"
        },
        {
          "internalType": "string",
          "name": "tokenUri",
          "type": "string"
        },
        {
          "internalType": "string",
          "name": "calendarNftUri",
          "type": "string"
        }
      ],
      "name": "updateMemberCalendar",
      "outputs": [],
      "stateMutability": "nonpayable",
      "type": "function"
    }
  ],
  "bytecode": "0x60806040523480156200001157600080fd5b50604051620011bc380380620011bc833981016040819052620000349162000218565b6000620000428482620003c4565b506001620000518382620003c4565b5060005b815181101562000138576000604051806060016040528084848151811062000081576200008162000490565b602090810291909101810151825260008282018190526040805192830181528183529092015260038054600181018255918190528251929350839291027fc2575a0e9e593c00f959f8c92f12db2869c3395a3b0502d05e2516446f71f85b01908190620000ef9082620003c4565b50602082015160018201805460ff1916911515919091179055604082015160028201906200011e9082620003c4565b5050505080806200012f90620004a6565b91505062000055565b50505050620004ce565b634e487b7160e01b600052604160045260246000fd5b604051601f8201601f191681016001600160401b038111828210171562000183576200018362000142565b604052919050565b600082601f8301126200019d57600080fd5b81516001600160401b03811115620001b957620001b962000142565b6020620001cf601f8301601f1916820162000158565b8281528582848701011115620001e457600080fd5b60005b8381101562000204578581018301518282018401528201620001e7565b506000928101909101919091529392505050565b6000806000606084860312156200022e57600080fd5b83516001600160401b03808211156200024657600080fd5b62000254878388016200018b565b94506020915081860151818111156200026c57600080fd5b6200027a888289016200018b565b9450506040860151818111156200029057600080fd5b8601601f81018813620002a257600080fd5b805182811115620002b757620002b762000142565b8060051b620002c885820162000158565b918252828101850191858101908b841115620002e357600080fd5b86850192505b838310156200032457825186811115620003035760008081fd5b620003138d89838901016200018b565b8352509186019190860190620002e9565b809750505050505050509250925092565b600181811c908216806200034a57607f821691505b6020821081036200036b57634e487b7160e01b600052602260045260246000fd5b50919050565b601f821115620003bf57600081815260208120601f850160051c810160208610156200039a5750805b601f850160051c820191505b81811015620003bb57828155600101620003a6565b5050505b505050565b81516001600160401b03811115620003e057620003e062000142565b620003f881620003f1845462000335565b8462000371565b602080601f831160018114620004305760008415620004175750858301515b600019600386901b1c1916600185901b178555620003bb565b600085815260208120601f198616915b82811015620004615788860151825594840194600190910190840162000440565b5085821015620004805787850151600019600388901b60f8161c191681555b5050505050600190811b01905550565b634e487b7160e01b600052603260045260246000fd5b600060018201620004c757634e487b7160e01b600052601160045260246000fd5b5060010190565b610cde80620004de6000396000f3fe608060405234801561001057600080fd5b506004361061004c5760003560e01c806312ef3a16146100515780635df8cceb1461006f5780639eab525314610084578063a1582cc714610099575b600080fd5b6100596100ac565b6040516100669190610773565b60405180910390f35b61008261007d3660046108dd565b610414565b005b61008c61047f565b6040516100669190610994565b6100826100a7366004610a19565b610615565b60035460609060009067ffffffffffffffff8111156100cd576100cd61083a565b60405190808252806020026020018201604052801561013057816020015b61011d6040518060a0016040528060608152602001606081526020016000815260200160608152602001606081525090565b8152602001906001900390816100eb5790505b50905060005b60035481101561040e5760026003828154811061015557610155610a96565b90600052602060002090600302016002016040516101739190610ae0565b90815260200160405180910390206040518060a001604052908160008201805461019c90610aac565b80601f01602080910402602001604051908101604052809291908181526020018280546101c890610aac565b80156102155780601f106101ea57610100808354040283529160200191610215565b820191906000526020600020905b8154815290600101906020018083116101f857829003601f168201915b5050505050815260200160018201805461022e90610aac565b80601f016020809104026020016040519081016040528092919081815260200182805461025a90610aac565b80156102a75780601f1061027c576101008083540402835291602001916102a7565b820191906000526020600020905b81548152906001019060200180831161028a57829003601f168201915b50505050508152602001600282015481526020016003820180546102ca90610aac565b80601f01602080910402602001604051908101604052809291908181526020018280546102f690610aac565b80156103435780601f1061031857610100808354040283529160200191610343565b820191906000526020600020905b81548152906001019060200180831161032657829003601f168201915b5050505050815260200160048201805461035c90610aac565b80601f016020809104026020016040519081016040528092919081815260200182805461038890610aac565b80156103d55780601f106103aa576101008083540402835291602001916103d5565b820191906000526020600020905b8154815290600101906020018083116103b857829003601f168201915b5050505050815250508282815181106103f0576103f0610a96565b6020026020010181905250808061040690610b56565b915050610136565b50919050565b60006002866040516104269190610b7d565b9081526040519081900360200190209050806104428782610be8565b50600181016104518682610be8565b5060028101849055600381016104678482610be8565b50600481016104768382610be8565b50505050505050565b60606003805480602002602001604051908101604052809291908181526020016000905b8282101561060c57838290600052602060002090600302016040518060600160405290816000820180546104d690610aac565b80601f016020809104026020016040519081016040528092919081815260200182805461050290610aac565b801561054f5780601f106105245761010080835404028352916020019161054f565b820191906000526020600020905b81548152906001019060200180831161053257829003601f168201915b5050509183525050600182015460ff161515602082015260028201805460409092019161057b90610aac565b80601f01602080910402602001604051908101604052809291908181526020018280546105a790610aac565b80156105f45780601f106105c9576101008083540402835291602001916105f4565b820191906000526020600020905b8154815290600101906020018083116105d757829003601f168201915b505050505081525050815260200190600101906104a3565b50505050905090565b60005b60035481101561071d57836040516020016106339190610b7d565b604051602081830303815290604052805190602001206003828154811061065c5761065c610a96565b906000526020600020906003020160000160405160200161067d9190610ae0565b604051602081830303815290604052805190602001200361070b5782600382815481106106ac576106ac610a96565b906000526020600020906003020160010160006101000a81548160ff02191690831515021790555081600382815481106106e8576106e8610a96565b906000526020600020906003020160020190816107059190610be8565b5061071d565b8061071581610b56565b915050610618565b50505050565b60005b8381101561073e578181015183820152602001610726565b50506000910152565b6000815180845261075f816020860160208601610723565b601f01601f19169290920160200192915050565b60006020808301818452808551808352604092508286019150828160051b87010184880160005b8381101561082c57603f19898403018552815160a081518186526107c082870182610747565b915050888201518582038a8701526107d88282610747565b9150508782015188860152606080830151868303828801526107fa8382610747565b92505050608080830151925085820381870152506108188183610747565b96890196945050509086019060010161079a565b509098975050505050505050565b634e487b7160e01b600052604160045260246000fd5b600082601f83011261086157600080fd5b813567ffffffffffffffff8082111561087c5761087c61083a565b604051601f8301601f19908116603f011681019082821181831017156108a4576108a461083a565b816040528381528660208588010111156108bd57600080fd5b836020870160208301376000602085830101528094505050505092915050565b600080600080600060a086880312156108f557600080fd5b853567ffffffffffffffff8082111561090d57600080fd5b61091989838a01610850565b9650602088013591508082111561092f57600080fd5b61093b89838a01610850565b955060408801359450606088013591508082111561095857600080fd5b61096489838a01610850565b9350608088013591508082111561097a57600080fd5b5061098788828901610850565b9150509295509295909350565b60006020808301818452808551808352604092508286019150828160051b87010184880160005b8381101561082c57603f198984030185528151606081518186526109e182870182610747565b9150508882015115158986015287820151915084810388860152610a058183610747565b9689019694505050908601906001016109bb565b600080600060608486031215610a2e57600080fd5b833567ffffffffffffffff80821115610a4657600080fd5b610a5287838801610850565b9450602086013591508115158214610a6957600080fd5b90925060408501359080821115610a7f57600080fd5b50610a8c86828701610850565b9150509250925092565b634e487b7160e01b600052603260045260246000fd5b600181811c90821680610ac057607f821691505b60208210810361040e57634e487b7160e01b600052602260045260246000fd5b6000808354610aee81610aac565b60018281168015610b065760018114610b1b57610b4a565b60ff1984168752821515830287019450610b4a565b8760005260208060002060005b85811015610b415781548a820152908401908201610b28565b50505082870194505b50929695505050505050565b600060018201610b7657634e487b7160e01b600052601160045260246000fd5b5060010190565b60008251610b8f818460208701610723565b9190910192915050565b601f821115610be357600081815260208120601f850160051c81016020861015610bc05750805b601f850160051c820191505b81811015610bdf57828155600101610bcc565b5050505b505050565b815167ffffffffffffffff811115610c0257610c0261083a565b610c1681610c108454610aac565b84610b99565b602080601f831160018114610c4b5760008415610c335750858301515b600019600386901b1c1916600185901b178555610bdf565b600085815260208120601f198616915b82811015610c7a57888601518255948401946001909101908401610c5b565b5085821015610c985787850151600019600388901b60f8161c191681555b5050505050600190811b0190555056fea2646970667358221220e61503853330b8a1f8572af492ed615d7024c080dcbac7e0e783a90894bf136964736f6c63430008130033",
  "linkReferences": {},
  "deployedLinkReferences": {}
}