{
  "_format": "hh-sol-artifact-1",
  "contractName": "CalendarNFT",
  "sourceName": "contracts/CalendarNFT.sol",
  "abi": [
    {
      "anonymous": false,
      "inputs": [
        {
          "indexed": true,
          "internalType": "address",
          "name": "owner",
          "type": "address"
        },
        {
          "indexed": true,
          "internalType": "address",
          "name": "approved",
          "type": "address"
        },
        {
          "indexed": true,
          "internalType": "uint256",
          "name": "tokenId",
          "type": "uint256"
        }
      ],
      "name": "Approval",
      "type": "event"
    },
    {
      "anonymous": false,
      "inputs": [
        {
          "indexed": true,
          "internalType": "address",
          "name": "owner",
          "type": "address"
        },
        {
          "indexed": true,
          "internalType": "address",
          "name": "operator",
          "type": "address"
        },
        {
          "indexed": false,
          "internalType": "bool",
          "name": "approved",
          "type": "bool"
        }
      ],
      "name": "ApprovalForAll",
      "type": "event"
    },
    {
      "anonymous": false,
      "inputs": [
        {
          "indexed": false,
          "internalType": "uint8",
          "name": "version",
          "type": "uint8"
        }
      ],
      "name": "Initialized",
      "type": "event"
    },
    {
      "anonymous": false,
      "inputs": [
        {
          "indexed": true,
          "internalType": "address",
          "name": "previousOwner",
          "type": "address"
        },
        {
          "indexed": true,
          "internalType": "address",
          "name": "newOwner",
          "type": "address"
        }
      ],
      "name": "OwnershipTransferred",
      "type": "event"
    },
    {
      "anonymous": false,
      "inputs": [
        {
          "indexed": true,
          "internalType": "address",
          "name": "from",
          "type": "address"
        },
        {
          "indexed": true,
          "internalType": "address",
          "name": "to",
          "type": "address"
        },
        {
          "indexed": true,
          "internalType": "uint256",
          "name": "tokenId",
          "type": "uint256"
        }
      ],
      "name": "Transfer",
      "type": "event"
    },
    {
      "inputs": [
        {
          "internalType": "string",
          "name": "calendarId",
          "type": "string"
        },
        {
          "internalType": "string",
          "name": "teamId",
          "type": "string"
        },
        {
          "internalType": "uint256",
          "name": "tokenId",
          "type": "uint256"
        },
        {
          "internalType": "string",
          "name": "tokenUri",
          "type": "string"
        },
        {
          "internalType": "string",
          "name": "calendarNftUri",
          "type": "string"
        }
      ],
      "name": "addOrUpdateCalendar",
      "outputs": [],
      "stateMutability": "nonpayable",
      "type": "function"
    },
    {
      "inputs": [
        {
          "internalType": "address",
          "name": "to",
          "type": "address"
        },
        {
          "internalType": "uint256",
          "name": "tokenId",
          "type": "uint256"
        }
      ],
      "name": "approve",
      "outputs": [],
      "stateMutability": "nonpayable",
      "type": "function"
    },
    {
      "inputs": [
        {
          "internalType": "address",
          "name": "owner",
          "type": "address"
        }
      ],
      "name": "balanceOf",
      "outputs": [
        {
          "internalType": "uint256",
          "name": "",
          "type": "uint256"
        }
      ],
      "stateMutability": "view",
      "type": "function"
    },
    {
      "inputs": [
        {
          "internalType": "uint256",
          "name": "tokenId",
          "type": "uint256"
        }
      ],
      "name": "burn",
      "outputs": [],
      "stateMutability": "nonpayable",
      "type": "function"
    },
    {
      "inputs": [
        {
          "internalType": "uint256",
          "name": "tokenId",
          "type": "uint256"
        }
      ],
      "name": "getApproved",
      "outputs": [
        {
          "internalType": "address",
          "name": "",
          "type": "address"
        }
      ],
      "stateMutability": "view",
      "type": "function"
    },
    {
      "inputs": [
        {
          "internalType": "string",
          "name": "calendarId",
          "type": "string"
        }
      ],
      "name": "getCalendar",
      "outputs": [
        {
          "components": [
            {
              "internalType": "string",
              "name": "calendarId",
              "type": "string"
            },
            {
              "internalType": "string",
              "name": "teamId",
              "type": "string"
            },
            {
              "internalType": "uint256",
              "name": "tokenId",
              "type": "uint256"
            },
            {
              "internalType": "string",
              "name": "tokenUri",
              "type": "string"
            },
            {
              "internalType": "string",
              "name": "calendarNftUri",
              "type": "string"
            }
          ],
          "internalType": "struct CalendarIndexer.Calendar",
          "name": "",
          "type": "tuple"
        }
      ],
      "stateMutability": "view",
      "type": "function"
    },
    {
      "inputs": [],
      "name": "getTotalSupply",
      "outputs": [
        {
          "internalType": "uint256",
          "name": "",
          "type": "uint256"
        }
      ],
      "stateMutability": "view",
      "type": "function"
    },
    {
      "inputs": [
        {
          "internalType": "string",
          "name": "name",
          "type": "string"
        },
        {
          "internalType": "string",
          "name": "symbol",
          "type": "string"
        },
        {
          "internalType": "uint256",
          "name": "totalSupply",
          "type": "uint256"
        }
      ],
      "name": "initialize",
      "outputs": [],
      "stateMutability": "nonpayable",
      "type": "function"
    },
    {
      "inputs": [
        {
          "internalType": "address",
          "name": "owner",
          "type": "address"
        },
        {
          "internalType": "address",
          "name": "operator",
          "type": "address"
        }
      ],
      "name": "isApprovedForAll",
      "outputs": [
        {
          "internalType": "bool",
          "name": "",
          "type": "bool"
        }
      ],
      "stateMutability": "view",
      "type": "function"
    },
    {
      "inputs": [
        {
          "internalType": "address",
          "name": "to",
          "type": "address"
        },
        {
          "internalType": "string",
          "name": "tokenUri",
          "type": "string"
        },
        {
          "internalType": "string",
          "name": "calendarNFTContentUri",
          "type": "string"
        },
        {
          "internalType": "string",
          "name": "teamId",
          "type": "string"
        }
      ],
      "name": "mint",
      "outputs": [],
      "stateMutability": "nonpayable",
      "type": "function"
    },
    {
      "inputs": [],
      "name": "name",
      "outputs": [
        {
          "internalType": "string",
          "name": "",
          "type": "string"
        }
      ],
      "stateMutability": "view",
      "type": "function"
    },
    {
      "inputs": [],
      "name": "owner",
      "outputs": [
        {
          "internalType": "address",
          "name": "",
          "type": "address"
        }
      ],
      "stateMutability": "view",
      "type": "function"
    },
    {
      "inputs": [
        {
          "internalType": "uint256",
          "name": "tokenId",
          "type": "uint256"
        }
      ],
      "name": "ownerOf",
      "outputs": [
        {
          "internalType": "address",
          "name": "",
          "type": "address"
        }
      ],
      "stateMutability": "view",
      "type": "function"
    },
    {
      "inputs": [
        {
          "internalType": "uint256",
          "name": "tokenId",
          "type": "uint256"
        },
        {
          "internalType": "string[]",
          "name": "teamIds",
          "type": "string[]"
        }
      ],
      "name": "publish",
      "outputs": [],
      "stateMutability": "nonpayable",
      "type": "function"
    },
    {
      "inputs": [],
      "name": "renounceOwnership",
      "outputs": [],
      "stateMutability": "nonpayable",
      "type": "function"
    },
    {
      "inputs": [
        {
          "internalType": "address",
          "name": "from",
          "type": "address"
        },
        {
          "internalType": "address",
          "name": "to",
          "type": "address"
        },
        {
          "internalType": "uint256",
          "name": "tokenId",
          "type": "uint256"
        }
      ],
      "name": "safeTransferFrom",
      "outputs": [],
      "stateMutability": "nonpayable",
      "type": "function"
    },
    {
      "inputs": [
        {
          "internalType": "address",
          "name": "from",
          "type": "address"
        },
        {
          "internalType": "address",
          "name": "to",
          "type": "address"
        },
        {
          "internalType": "uint256",
          "name": "tokenId",
          "type": "uint256"
        },
        {
          "internalType": "bytes",
          "name": "data",
          "type": "bytes"
        }
      ],
      "name": "safeTransferFrom",
      "outputs": [],
      "stateMutability": "nonpayable",
      "type": "function"
    },
    {
      "inputs": [
        {
          "internalType": "address",
          "name": "operator",
          "type": "address"
        },
        {
          "internalType": "bool",
          "name": "approved",
          "type": "bool"
        }
      ],
      "name": "setApprovalForAll",
      "outputs": [],
      "stateMutability": "nonpayable",
      "type": "function"
    },
    {
      "inputs": [
        {
          "internalType": "uint256",
          "name": "tokenId",
          "type": "uint256"
        },
        {
          "internalType": "string",
          "name": "tokenUri",
          "type": "string"
        },
        {
          "internalType": "string",
          "name": "calendarNFTUri",
          "type": "string"
        }
      ],
      "name": "setTokenUri",
      "outputs": [],
      "stateMutability": "nonpayable",
      "type": "function"
    },
    {
      "inputs": [
        {
          "internalType": "bytes4",
          "name": "_interfaceId",
          "type": "bytes4"
        }
      ],
      "name": "supportsInterface",
      "outputs": [
        {
          "internalType": "bool",
          "name": "",
          "type": "bool"
        }
      ],
      "stateMutability": "view",
      "type": "function"
    },
    {
      "inputs": [],
      "name": "symbol",
      "outputs": [
        {
          "internalType": "string",
          "name": "",
          "type": "string"
        }
      ],
      "stateMutability": "view",
      "type": "function"
    },
    {
      "inputs": [
        {
          "internalType": "uint256",
          "name": "index",
          "type": "uint256"
        }
      ],
      "name": "tokenByIndex",
      "outputs": [
        {
          "internalType": "uint256",
          "name": "",
          "type": "uint256"
        }
      ],
      "stateMutability": "view",
      "type": "function"
    },
    {
      "inputs": [
        {
          "internalType": "address",
          "name": "owner",
          "type": "address"
        },
        {
          "internalType": "uint256",
          "name": "index",
          "type": "uint256"
        }
      ],
      "name": "tokenOfOwnerByIndex",
      "outputs": [
        {
          "internalType": "uint256",
          "name": "",
          "type": "uint256"
        }
      ],
      "stateMutability": "view",
      "type": "function"
    },
    {
      "inputs": [
        {
          "internalType": "uint256",
          "name": "tokenId",
          "type": "uint256"
        }
      ],
      "name": "tokenURI",
      "outputs": [
        {
          "internalType": "string",
          "name": "",
          "type": "string"
        }
      ],
      "stateMutability": "view",
      "type": "function"
    },
    {
      "inputs": [],
      "name": "totalSupply",
      "outputs": [
        {
          "internalType": "uint256",
          "name": "",
          "type": "uint256"
        }
      ],
      "stateMutability": "view",
      "type": "function"
    },
    {
      "inputs": [
        {
          "internalType": "address",
          "name": "from",
          "type": "address"
        },
        {
          "internalType": "address",
          "name": "to",
          "type": "address"
        },
        {
          "internalType": "uint256",
          "name": "tokenId",
          "type": "uint256"
        }
      ],
      "name": "transferFrom",
      "outputs": [],
      "stateMutability": "nonpayable",
      "type": "function"
    },
    {
      "inputs": [
        {
          "internalType": "address",
          "name": "newOwner",
          "type": "address"
        }
      ],
      "name": "transferOwnership",
      "outputs": [],
      "stateMutability": "nonpayable",
      "type": "function"
    }
  ],
  "bytecode": "0x608060405234801561001057600080fd5b506129d2806100206000396000f3fe608060405234801561001057600080fd5b50600436106101a95760003560e01c806370a08231116100f9578063b88d4fde11610097578063d0837ea911610071578063d0837ea91461037f578063e985e9c514610392578063f2fde38b146103ce578063fad33a2e146103e157600080fd5b8063b88d4fde14610350578063c4e41b2214610363578063c87b56dd1461036c57600080fd5b80638da5cb5b116100d35780638da5cb5b1461031057806395d89b4114610322578063a22cb4651461032a578063b119490e1461033d57600080fd5b806370a08231146102d5578063715018a6146102e8578063786b0b41146102f057600080fd5b80632f745c59116101665780634a0706be116101405780634a0706be146102895780634f6ccce71461029c5780636352211e146102af57806366dc20ff146102c257600080fd5b80632f745c591461025057806342842e0e1461026357806342966c681461027657600080fd5b806301ffc9a7146101ae57806306fdde03146101d6578063081812fc146101eb578063095ea7b31461021657806318160ddd1461022b57806323b872dd1461023d575b600080fd5b6101c16101bc366004611f88565b6103f4565b60405190151581526020015b60405180910390f35b6101de610405565b6040516101cd9190611ff5565b6101fe6101f9366004612008565b610497565b6040516001600160a01b0390911681526020016101cd565b61022961022436600461203d565b6104be565b005b60cb545b6040519081526020016101cd565b61022961024b366004612067565b6105d8565b61022f61025e36600461203d565b61060a565b610229610271366004612067565b6106a0565b610229610284366004612008565b6106bb565b610229610297366004612162565b6106ec565b61022f6102aa366004612008565b610774565b6101fe6102bd366004612008565b610807565b6102296102d03660046121fb565b610867565b61022f6102e33660046122b2565b6109aa565b610229610a30565b6103036102fe3660046122cd565b610a44565b6040516101cd9190612302565b61012d546001600160a01b03166101fe565b6101de610cf9565b61022961033836600461238a565b610d08565b61022961034b3660046123c6565b610d17565b61022961035e366004612433565b610e53565b6101625461022f565b6101de61037a366004612008565b610e85565b61022961038d3660046124a3565b610e90565b6101c16103a0366004612510565b6001600160a01b039182166000908152606a6020908152604080832093909416825291909152205460ff1690565b6102296103dc3660046122b2565b610ea2565b6102296103ef366004612543565b610f18565b60006103ff82610f36565b92915050565b60606065805461041490612612565b80601f016020809104026020016040519081016040528092919081815260200182805461044090612612565b801561048d5780601f106104625761010080835404028352916020019161048d565b820191906000526020600020905b81548152906001019060200180831161047057829003601f168201915b5050505050905090565b60006104a282610f5b565b506000908152606960205260409020546001600160a01b031690565b60006104c982610807565b9050806001600160a01b0316836001600160a01b03160361053b5760405162461bcd60e51b815260206004820152602160248201527f4552433732313a20617070726f76616c20746f2063757272656e74206f776e656044820152603960f91b60648201526084015b60405180910390fd5b336001600160a01b0382161480610557575061055781336103a0565b6105c95760405162461bcd60e51b815260206004820152603d60248201527f4552433732313a20617070726f76652063616c6c6572206973206e6f7420746f60448201527f6b656e206f776e6572206f7220617070726f76656420666f7220616c6c0000006064820152608401610532565b6105d38383610fba565b505050565b6105e3335b82611028565b6105ff5760405162461bcd60e51b81526004016105329061264c565b6105d38383836110a7565b6000610615836109aa565b82106106775760405162461bcd60e51b815260206004820152602b60248201527f455243373231456e756d657261626c653a206f776e657220696e646578206f7560448201526a74206f6620626f756e647360a81b6064820152608401610532565b506001600160a01b0391909116600090815260c960209081526040808320938352929052205490565b6105d383838360405180602001604052806000815250610e53565b6106c4336105dd565b6106e05760405162461bcd60e51b81526004016105329061264c565b6106e981611218565b50565b6106f4611221565b60006107006101615490565b90506101625481111561074a5760405162461bcd60e51b815260206004820152601260248201527113585e081cdd5c1c1b1e481c995858da195960721b6044820152606401610532565b610754858261127c565b61075e8185611296565b61076d61016180546001019055565b5050505050565b600061077f60cb5490565b82106107e25760405162461bcd60e51b815260206004820152602c60248201527f455243373231456e756d657261626c653a20676c6f62616c20696e646578206f60448201526b7574206f6620626f756e647360a01b6064820152608401610532565b60cb82815481106107f5576107f5612699565b90600052602060002001549050919050565b6000818152606760205260408120546001600160a01b0316806103ff5760405162461bcd60e51b8152602060048201526018602482015277115490cdcc8c4e881a5b9d985b1a59081d1bdad95b88125160421b6044820152606401610532565b60006040518060a001604052808781526020018681526020018581526020018481526020018381525090508061015f876040516108a491906126af565b908152604051908190036020019020815181906108c19082612719565b50602082015160018201906108d69082612719565b5060408201516002820155606082015160038201906108f59082612719565b506080820151600482019061090a9082612719565b509050506101608560405161091f91906126af565b9081526040516020918190038201902080546001810182556000918252919020825183926005029091019081906109569082612719565b506020820151600182019061096b9082612719565b50604082015160028201556060820151600382019061098a9082612719565b506080820151600482019061099f9082612719565b505050505050505050565b60006001600160a01b038216610a145760405162461bcd60e51b815260206004820152602960248201527f4552433732313a2061646472657373207a65726f206973206e6f7420612076616044820152683634b21037bbb732b960b91b6064820152608401610532565b506001600160a01b031660009081526068602052604090205490565b610a38611221565b610a426000611329565b565b610a766040518060a0016040528060608152602001606081526020016000815260200160608152602001606081525090565b61015f82604051610a8791906126af565b90815260200160405180910390206040518060a0016040529081600082018054610ab090612612565b80601f0160208091040260200160405190810160405280929190818152602001828054610adc90612612565b8015610b295780601f10610afe57610100808354040283529160200191610b29565b820191906000526020600020905b815481529060010190602001808311610b0c57829003601f168201915b50505050508152602001600182018054610b4290612612565b80601f0160208091040260200160405190810160405280929190818152602001828054610b6e90612612565b8015610bbb5780601f10610b9057610100808354040283529160200191610bbb565b820191906000526020600020905b815481529060010190602001808311610b9e57829003601f168201915b5050505050815260200160028201548152602001600382018054610bde90612612565b80601f0160208091040260200160405190810160405280929190818152602001828054610c0a90612612565b8015610c575780601f10610c2c57610100808354040283529160200191610c57565b820191906000526020600020905b815481529060010190602001808311610c3a57829003601f168201915b50505050508152602001600482018054610c7090612612565b80601f0160208091040260200160405190810160405280929190818152602001828054610c9c90612612565b8015610ce95780601f10610cbe57610100808354040283529160200191610ce9565b820191906000526020600020905b815481529060010190602001808311610ccc57829003601f168201915b5050505050815250509050919050565b60606066805461041490612612565b610d1333838361137c565b5050565b600054610100900460ff1615808015610d375750600054600160ff909116105b80610d515750303b158015610d51575060005460ff166001145b610db45760405162461bcd60e51b815260206004820152602e60248201527f496e697469616c697a61626c653a20636f6e747261637420697320616c72656160448201526d191e481a5b9a5d1a585b1a5e995960921b6064820152608401610532565b6000805460ff191660011790558015610dd7576000805461ff0019166101001790555b610de1848461144a565b610de961147b565b610df161147b565b610df961147b565b610e016114a2565b6101628290558015610e4d576000805461ff0019169055604051600181527f7f26b83ff96e1f2b6a682f133852f6798a09c465da95921460cefb38474024989060200160405180910390a15b50505050565b610e5d3383611028565b610e795760405162461bcd60e51b81526004016105329061264c565b610e4d848484846114d1565b60606103ff82611504565b610e98611221565b6105d38383611296565b610eaa611221565b6001600160a01b038116610f0f5760405162461bcd60e51b815260206004820152602660248201527f4f776e61626c653a206e6577206f776e657220697320746865207a65726f206160448201526564647265737360d01b6064820152608401610532565b6106e981611329565b60005b81518110156105d35780610f2e816127ef565b915050610f1b565b60006001600160e01b0319821663780e9d6360e01b14806103ff57506103ff8261160c565b6000818152606760205260409020546001600160a01b03166106e95760405162461bcd60e51b8152602060048201526018602482015277115490cdcc8c4e881a5b9d985b1a59081d1bdad95b88125160421b6044820152606401610532565b600081815260696020526040902080546001600160a01b0319166001600160a01b0384169081179091558190610fef82610807565b6001600160a01b03167f8c5be1e5ebec7d5bd14f71427d1e84f3dd0314c0f7b2291e5b200ac8c7c3b92560405160405180910390a45050565b60008061103483610807565b9050806001600160a01b0316846001600160a01b0316148061107b57506001600160a01b038082166000908152606a602090815260408083209388168352929052205460ff165b8061109f5750836001600160a01b031661109484610497565b6001600160a01b0316145b949350505050565b826001600160a01b03166110ba82610807565b6001600160a01b0316146110e05760405162461bcd60e51b815260040161053290612808565b6001600160a01b0382166111425760405162461bcd60e51b8152602060048201526024808201527f4552433732313a207472616e7366657220746f20746865207a65726f206164646044820152637265737360e01b6064820152608401610532565b61114f838383600161165c565b826001600160a01b031661116282610807565b6001600160a01b0316146111885760405162461bcd60e51b815260040161053290612808565b600081815260696020908152604080832080546001600160a01b03199081169091556001600160a01b0387811680865260688552838620805460001901905590871680865283862080546001019055868652606790945282852080549092168417909155905184937fddf252ad1be2c89b69c2b068fc378daa952ba7f163c4a11628f55a4df523b3ef91a4505050565b6106e981611668565b61012d546001600160a01b03163314610a425760405162461bcd60e51b815260206004820181905260248201527f4f776e61626c653a2063616c6c6572206973206e6f7420746865206f776e65726044820152606401610532565b610d138282604051806020016040528060008152506116a8565b6000828152606760205260409020546001600160a01b03166113115760405162461bcd60e51b815260206004820152602e60248201527f45524337323155524953746f726167653a2055524920736574206f66206e6f6e60448201526d32bc34b9ba32b73a103a37b5b2b760911b6064820152608401610532565b60008281526097602052604090206105d38282612719565b61012d80546001600160a01b038381166001600160a01b0319831681179093556040519116919082907f8be0079c531659141344cd1fd0a4f28419497f9722a3daafe3b4186f6b6457e090600090a35050565b816001600160a01b0316836001600160a01b0316036113dd5760405162461bcd60e51b815260206004820152601960248201527f4552433732313a20617070726f766520746f2063616c6c6572000000000000006044820152606401610532565b6001600160a01b038381166000818152606a6020908152604080832094871680845294825291829020805460ff191686151590811790915591519182527f17307eab39ab6107e8899845ad3d59bd9653f200f220920489ca2b5937696c31910160405180910390a3505050565b600054610100900460ff166114715760405162461bcd60e51b81526004016105329061284d565b610d1382826116db565b600054610100900460ff16610a425760405162461bcd60e51b81526004016105329061284d565b600054610100900460ff166114c95760405162461bcd60e51b81526004016105329061284d565b610a4261171b565b6114dc8484846110a7565b6114e88484848461174b565b610e4d5760405162461bcd60e51b815260040161053290612898565b606061150f82610f5b565b6000828152609760205260408120805461152890612612565b80601f016020809104026020016040519081016040528092919081815260200182805461155490612612565b80156115a15780601f10611576576101008083540402835291602001916115a1565b820191906000526020600020905b81548152906001019060200180831161158457829003601f168201915b5050505050905060006115bf60408051602081019091526000815290565b905080516000036115d1575092915050565b8151156116035780826040516020016115eb9291906128ea565b60405160208183030381529060405292505050919050565b61109f8461184c565b60006001600160e01b031982166380ac58cd60e01b148061163d57506001600160e01b03198216635b5e139f60e01b145b806103ff57506301ffc9a760e01b6001600160e01b03198316146103ff565b610e4d848484846118c0565b611671816119ed565b6000818152609760205260409020805461168a90612612565b1590506106e95760008181526097602052604081206106e991611f24565b6116b28383611a90565b6116bf600084848461174b565b6105d35760405162461bcd60e51b815260040161053290612898565b600054610100900460ff166117025760405162461bcd60e51b81526004016105329061284d565b606561170e8382612719565b5060666105d38282612719565b600054610100900460ff166117425760405162461bcd60e51b81526004016105329061284d565b610a4233611329565b60006001600160a01b0384163b1561184157604051630a85bd0160e11b81526001600160a01b0385169063150b7a029061178f903390899088908890600401612919565b6020604051808303816000875af19250505080156117ca575060408051601f3d908101601f191682019092526117c791810190612956565b60015b611827573d8080156117f8576040519150601f19603f3d011682016040523d82523d6000602084013e6117fd565b606091505b50805160000361181f5760405162461bcd60e51b815260040161053290612898565b805181602001fd5b6001600160e01b031916630a85bd0160e11b14905061109f565b506001949350505050565b606061185782610f5b565b600061186e60408051602081019091526000815290565b9050600081511161188e57604051806020016040528060008152506118b9565b8061189884611c29565b6040516020016118a99291906128ea565b6040516020818303038152906040525b9392505050565b600181111561192f5760405162461bcd60e51b815260206004820152603560248201527f455243373231456e756d657261626c653a20636f6e7365637574697665207472604482015274185b9cd9995c9cc81b9bdd081cdd5c1c1bdc9d1959605a1b6064820152608401610532565b816001600160a01b03851661198b576119868160cb8054600083815260cc60205260408120829055600182018355919091527fa7ce836d032b2bf62b7e2097a8e0a6d8aeb35405ad15271e96d3b0188a1d06fb0155565b6119ae565b836001600160a01b0316856001600160a01b0316146119ae576119ae8582611cbc565b6001600160a01b0384166119ca576119c581611d59565b61076d565b846001600160a01b0316846001600160a01b03161461076d5761076d8482611e08565b60006119f882610807565b9050611a0881600084600161165c565b611a1182610807565b600083815260696020908152604080832080546001600160a01b03199081169091556001600160a01b0385168085526068845282852080546000190190558785526067909352818420805490911690555192935084927fddf252ad1be2c89b69c2b068fc378daa952ba7f163c4a11628f55a4df523b3ef908390a45050565b6001600160a01b038216611ae65760405162461bcd60e51b815260206004820181905260248201527f4552433732313a206d696e7420746f20746865207a65726f20616464726573736044820152606401610532565b6000818152606760205260409020546001600160a01b031615611b4b5760405162461bcd60e51b815260206004820152601c60248201527f4552433732313a20746f6b656e20616c7265616479206d696e746564000000006044820152606401610532565b611b5960008383600161165c565b6000818152606760205260409020546001600160a01b031615611bbe5760405162461bcd60e51b815260206004820152601c60248201527f4552433732313a20746f6b656e20616c7265616479206d696e746564000000006044820152606401610532565b6001600160a01b038216600081815260686020908152604080832080546001019055848352606790915280822080546001600160a01b0319168417905551839291907fddf252ad1be2c89b69c2b068fc378daa952ba7f163c4a11628f55a4df523b3ef908290a45050565b60606000611c3683611e4c565b600101905060008167ffffffffffffffff811115611c5657611c566120a3565b6040519080825280601f01601f191660200182016040528015611c80576020820181803683370190505b5090508181016020015b600019016f181899199a1a9b1b9c1cb0b131b232b360811b600a86061a8153600a8504945084611c8a57509392505050565b60006001611cc9846109aa565b611cd39190612973565b600083815260ca6020526040902054909150808214611d26576001600160a01b038416600090815260c960209081526040808320858452825280832054848452818420819055835260ca90915290208190555b50600091825260ca602090815260408084208490556001600160a01b03909416835260c981528383209183525290812055565b60cb54600090611d6b90600190612973565b600083815260cc602052604081205460cb8054939450909284908110611d9357611d93612699565b906000526020600020015490508060cb8381548110611db457611db4612699565b600091825260208083209091019290925582815260cc909152604080822084905585825281205560cb805480611dec57611dec612986565b6001900381819060005260206000200160009055905550505050565b6000611e13836109aa565b6001600160a01b03909316600090815260c960209081526040808320868452825280832085905593825260ca9052919091209190915550565b60008072184f03e93ff9f4daa797ed6e38ed64bf6a1f0160401b8310611e8b5772184f03e93ff9f4daa797ed6e38ed64bf6a1f0160401b830492506040015b6d04ee2d6d415b85acef81000000008310611eb7576d04ee2d6d415b85acef8100000000830492506020015b662386f26fc100008310611ed557662386f26fc10000830492506010015b6305f5e1008310611eed576305f5e100830492506008015b6127108310611f0157612710830492506004015b60648310611f13576064830492506002015b600a83106103ff5760010192915050565b508054611f3090612612565b6000825580601f10611f40575050565b601f0160209004906000526020600020908101906106e991905b80821115611f6e5760008155600101611f5a565b5090565b6001600160e01b0319811681146106e957600080fd5b600060208284031215611f9a57600080fd5b81356118b981611f72565b60005b83811015611fc0578181015183820152602001611fa8565b50506000910152565b60008151808452611fe1816020860160208601611fa5565b601f01601f19169290920160200192915050565b6020815260006118b96020830184611fc9565b60006020828403121561201a57600080fd5b5035919050565b80356001600160a01b038116811461203857600080fd5b919050565b6000806040838503121561205057600080fd5b61205983612021565b946020939093013593505050565b60008060006060848603121561207c57600080fd5b61208584612021565b925061209360208501612021565b9150604084013590509250925092565b634e487b7160e01b600052604160045260246000fd5b604051601f8201601f1916810167ffffffffffffffff811182821017156120e2576120e26120a3565b604052919050565b600067ffffffffffffffff831115612104576121046120a3565b612117601f8401601f19166020016120b9565b905082815283838301111561212b57600080fd5b828260208301376000602084830101529392505050565b600082601f83011261215357600080fd5b6118b9838335602085016120ea565b6000806000806080858703121561217857600080fd5b61218185612021565b9350602085013567ffffffffffffffff8082111561219e57600080fd5b6121aa88838901612142565b945060408701359150808211156121c057600080fd5b6121cc88838901612142565b935060608701359150808211156121e257600080fd5b506121ef87828801612142565b91505092959194509250565b600080600080600060a0868803121561221357600080fd5b853567ffffffffffffffff8082111561222b57600080fd5b61223789838a01612142565b9650602088013591508082111561224d57600080fd5b61225989838a01612142565b955060408801359450606088013591508082111561227657600080fd5b61228289838a01612142565b9350608088013591508082111561229857600080fd5b506122a588828901612142565b9150509295509295909350565b6000602082840312156122c457600080fd5b6118b982612021565b6000602082840312156122df57600080fd5b813567ffffffffffffffff8111156122f657600080fd5b61109f84828501612142565b602081526000825160a0602084015261231e60c0840182611fc9565b90506020840151601f198085840301604086015261233c8383611fc9565b92506040860151606086015260608601519150808584030160808601526123638383611fc9565b925060808601519150808584030160a0860152506123818282611fc9565b95945050505050565b6000806040838503121561239d57600080fd5b6123a683612021565b9150602083013580151581146123bb57600080fd5b809150509250929050565b6000806000606084860312156123db57600080fd5b833567ffffffffffffffff808211156123f357600080fd5b6123ff87838801612142565b9450602086013591508082111561241557600080fd5b5061242286828701612142565b925050604084013590509250925092565b6000806000806080858703121561244957600080fd5b61245285612021565b935061246060208601612021565b925060408501359150606085013567ffffffffffffffff81111561248357600080fd5b8501601f8101871361249457600080fd5b6121ef878235602084016120ea565b6000806000606084860312156124b857600080fd5b83359250602084013567ffffffffffffffff808211156124d757600080fd5b6124e387838801612142565b935060408601359150808211156124f957600080fd5b5061250686828701612142565b9150509250925092565b6000806040838503121561252357600080fd5b61252c83612021565b915061253a60208401612021565b90509250929050565b6000806040838503121561255657600080fd5b8235915060208084013567ffffffffffffffff8082111561257657600080fd5b818601915086601f83011261258a57600080fd5b81358181111561259c5761259c6120a3565b8060051b6125ab8582016120b9565b918252838101850191858101908a8411156125c557600080fd5b86860192505b83831015612601578235858111156125e35760008081fd5b6125f18c89838a0101612142565b83525091860191908601906125cb565b809750505050505050509250929050565b600181811c9082168061262657607f821691505b60208210810361264657634e487b7160e01b600052602260045260246000fd5b50919050565b6020808252602d908201527f4552433732313a2063616c6c6572206973206e6f7420746f6b656e206f776e6560408201526c1c881bdc88185c1c1c9bdd9959609a1b606082015260800190565b634e487b7160e01b600052603260045260246000fd5b600082516126c1818460208701611fa5565b9190910192915050565b601f8211156105d357600081815260208120601f850160051c810160208610156126f25750805b601f850160051c820191505b81811015612711578281556001016126fe565b505050505050565b815167ffffffffffffffff811115612733576127336120a3565b612747816127418454612612565b846126cb565b602080601f83116001811461277c57600084156127645750858301515b600019600386901b1c1916600185901b178555612711565b600085815260208120601f198616915b828110156127ab5788860151825594840194600190910190840161278c565b50858210156127c95787850151600019600388901b60f8161c191681555b5050505050600190811b01905550565b634e487b7160e01b600052601160045260246000fd5b600060018201612801576128016127d9565b5060010190565b60208082526025908201527f4552433732313a207472616e736665722066726f6d20696e636f72726563742060408201526437bbb732b960d91b606082015260800190565b6020808252602b908201527f496e697469616c697a61626c653a20636f6e7472616374206973206e6f74206960408201526a6e697469616c697a696e6760a81b606082015260800190565b60208082526032908201527f4552433732313a207472616e7366657220746f206e6f6e20455243373231526560408201527131b2b4bb32b91034b6b83632b6b2b73a32b960711b606082015260800190565b600083516128fc818460208801611fa5565b835190830190612910818360208801611fa5565b01949350505050565b6001600160a01b038581168252841660208201526040810183905260806060820181905260009061294c90830184611fc9565b9695505050505050565b60006020828403121561296857600080fd5b81516118b981611f72565b818103818111156103ff576103ff6127d9565b634e487b7160e01b600052603160045260246000fdfea2646970667358221220804fbd22ac4a92467a96991fe58a1cb209e9fa60eb9b2375e4639346df5890b164736f6c63430008130033",
  "linkReferences": {},
  "deployedLinkReferences": {}
}